{
  "contractName": "XYZCoin",
  "abi": [
    {
      "inputs": [],
      "stateMutability": "nonpayable",
      "type": "constructor"
    },
    {
      "anonymous": false,
      "inputs": [
        {
          "indexed": true,
          "internalType": "address",
          "name": "tokenOwner",
          "type": "address"
        },
        {
          "indexed": true,
          "internalType": "address",
          "name": "spender",
          "type": "address"
        },
        {
          "indexed": false,
          "internalType": "uint256",
          "name": "tokens",
          "type": "uint256"
        }
      ],
      "name": "Approval",
      "type": "event"
    },
    {
      "anonymous": false,
      "inputs": [
        {
          "indexed": true,
          "internalType": "address",
          "name": "from",
          "type": "address"
        },
        {
          "indexed": true,
          "internalType": "address",
          "name": "to",
          "type": "address"
        },
        {
          "indexed": false,
          "internalType": "uint256",
          "name": "tokens",
          "type": "uint256"
        }
      ],
      "name": "Transfer",
      "type": "event"
    },
    {
      "inputs": [],
      "name": "_decimals",
      "outputs": [
        {
          "internalType": "uint8",
          "name": "",
          "type": "uint8"
        }
      ],
      "stateMutability": "view",
      "type": "function",
      "constant": true
    },
    {
      "inputs": [],
      "name": "_name",
      "outputs": [
        {
          "internalType": "string",
          "name": "",
          "type": "string"
        }
      ],
      "stateMutability": "view",
      "type": "function",
      "constant": true
    },
    {
      "inputs": [],
      "name": "_symbol",
      "outputs": [
        {
          "internalType": "string",
          "name": "",
          "type": "string"
        }
      ],
      "stateMutability": "view",
      "type": "function",
      "constant": true
    },
    {
      "inputs": [],
      "name": "_totalSupply",
      "outputs": [
        {
          "internalType": "uint256",
          "name": "",
          "type": "uint256"
        }
      ],
      "stateMutability": "view",
      "type": "function",
      "constant": true
    },
    {
      "inputs": [
        {
          "internalType": "address",
          "name": "",
          "type": "address"
        },
        {
          "internalType": "address",
          "name": "",
          "type": "address"
        }
      ],
      "name": "allowed",
      "outputs": [
        {
          "internalType": "uint256",
          "name": "",
          "type": "uint256"
        }
      ],
      "stateMutability": "view",
      "type": "function",
      "constant": true
    },
    {
      "inputs": [
        {
          "internalType": "address",
          "name": "",
          "type": "address"
        }
      ],
      "name": "balances",
      "outputs": [
        {
          "internalType": "uint256",
          "name": "",
          "type": "uint256"
        }
      ],
      "stateMutability": "view",
      "type": "function",
      "constant": true
    },
    {
      "inputs": [],
      "name": "name",
      "outputs": [
        {
          "internalType": "string",
          "name": "",
          "type": "string"
        }
      ],
      "stateMutability": "view",
      "type": "function",
      "constant": true
    },
    {
      "inputs": [],
      "name": "symbol",
      "outputs": [
        {
          "internalType": "string",
          "name": "",
          "type": "string"
        }
      ],
      "stateMutability": "view",
      "type": "function",
      "constant": true
    },
    {
      "inputs": [],
      "name": "decimals",
      "outputs": [
        {
          "internalType": "uint8",
          "name": "",
          "type": "uint8"
        }
      ],
      "stateMutability": "view",
      "type": "function",
      "constant": true
    },
    {
      "inputs": [],
      "name": "totalSupply",
      "outputs": [
        {
          "internalType": "uint256",
          "name": "",
          "type": "uint256"
        }
      ],
      "stateMutability": "view",
      "type": "function",
      "constant": true
    },
    {
      "inputs": [
        {
          "internalType": "address",
          "name": "tokenOwner",
          "type": "address"
        }
      ],
      "name": "balanceOf",
      "outputs": [
        {
          "internalType": "uint256",
          "name": "balance",
          "type": "uint256"
        }
      ],
      "stateMutability": "view",
      "type": "function",
      "constant": true
    },
    {
      "inputs": [
        {
          "internalType": "address",
          "name": "to",
          "type": "address"
        },
        {
          "internalType": "uint256",
          "name": "tokens",
          "type": "uint256"
        }
      ],
      "name": "transfer",
      "outputs": [
        {
          "internalType": "bool",
          "name": "success",
          "type": "bool"
        }
      ],
      "stateMutability": "nonpayable",
      "type": "function"
    },
    {
      "inputs": [
        {
          "internalType": "address",
          "name": "spender",
          "type": "address"
        },
        {
          "internalType": "uint256",
          "name": "tokens",
          "type": "uint256"
        }
      ],
      "name": "approve",
      "outputs": [
        {
          "internalType": "bool",
          "name": "success",
          "type": "bool"
        }
      ],
      "stateMutability": "nonpayable",
      "type": "function"
    },
    {
      "inputs": [
        {
          "internalType": "address",
          "name": "from",
          "type": "address"
        },
        {
          "internalType": "address",
          "name": "to",
          "type": "address"
        },
        {
          "internalType": "uint256",
          "name": "tokens",
          "type": "uint256"
        }
      ],
      "name": "transferFrom",
      "outputs": [
        {
          "internalType": "bool",
          "name": "success",
          "type": "bool"
        }
      ],
      "stateMutability": "nonpayable",
      "type": "function"
    },
    {
      "inputs": [
        {
          "internalType": "address",
          "name": "tokenOwner",
          "type": "address"
        },
        {
          "internalType": "address",
          "name": "spender",
          "type": "address"
        }
      ],
      "name": "allowance",
      "outputs": [
        {
          "internalType": "uint256",
          "name": "remaining",
          "type": "uint256"
        }
      ],
      "stateMutability": "view",
      "type": "function",
      "constant": true
    }
  ],
  "bytecode": "0x60806040526040518060400160405280600781526020017f58595a436f696e000000000000000000000000000000000000000000000000008152505f9081620000499190620003d5565b506040518060400160405280600381526020017f58595a000000000000000000000000000000000000000000000000000000000081525060019081620000909190620003d5565b505f60025f6101000a81548160ff021916908360ff1602179055506103e8600355348015620000bd575f80fd5b5060035460045f3373ffffffffffffffffffffffffffffffffffffffff1673ffffffffffffffffffffffffffffffffffffffff1681526020019081526020015f20819055503373ffffffffffffffffffffffffffffffffffffffff165f73ffffffffffffffffffffffffffffffffffffffff167fddf252ad1be2c89b69c2b068fc378daa952ba7f163c4a11628f55a4df523b3ef600354604051620001639190620004ca565b60405180910390a3620004e5565b5f81519050919050565b7f4e487b71000000000000000000000000000000000000000000000000000000005f52604160045260245ffd5b7f4e487b71000000000000000000000000000000000000000000000000000000005f52602260045260245ffd5b5f6002820490506001821680620001ed57607f821691505b602082108103620002035762000202620001a8565b5b50919050565b5f819050815f5260205f209050919050565b5f6020601f8301049050919050565b5f82821b905092915050565b5f60088302620002677fffffffffffffffffffffffffffffffffffffffffffffffffffffffffffffffff826200022a565b6200027386836200022a565b95508019841693508086168417925050509392505050565b5f819050919050565b5f819050919050565b5f620002bd620002b7620002b1846200028b565b62000294565b6200028b565b9050919050565b5f819050919050565b620002d8836200029d565b620002f0620002e782620002c4565b84845462000236565b825550505050565b5f90565b62000306620002f8565b62000313818484620002cd565b505050565b5b818110156200033a576200032e5f82620002fc565b60018101905062000319565b5050565b601f8211156200038957620003538162000209565b6200035e846200021b565b810160208510156200036e578190505b620003866200037d856200021b565b83018262000318565b50505b505050565b5f82821c905092915050565b5f620003ab5f19846008026200038e565b1980831691505092915050565b5f620003c583836200039a565b9150826002028217905092915050565b620003e08262000171565b67ffffffffffffffff811115620003fc57620003fb6200017b565b5b620004088254620001d5565b620004158282856200033e565b5f60209050601f8311600181146200044b575f841562000436578287015190505b620004428582620003b8565b865550620004b1565b601f1984166200045b8662000209565b5f5b8281101562000484578489015182556001820191506020850194506020810190506200045d565b86831015620004a45784890151620004a0601f8916826200039a565b8355505b6001600288020188555050505b505050505050565b620004c4816200028b565b82525050565b5f602082019050620004df5f830184620004b9565b92915050565b6110ba80620004f35f395ff3fe608060405234801561000f575f80fd5b50600436106100f3575f3560e01c80633eaaf86b11610095578063a9059cbb11610064578063a9059cbb1461029b578063b09f1266146102cb578063d28d8852146102e9578063dd62ed3e14610307576100f3565b80633eaaf86b146101ff5780635c6581651461021d57806370a082311461024d57806395d89b411461027d576100f3565b806323b872dd116100d157806323b872dd1461016357806327e235e314610193578063313ce567146101c357806332424aa3146101e1576100f3565b806306fdde03146100f7578063095ea7b31461011557806318160ddd14610145575b5f80fd5b6100ff610337565b60405161010c9190610c8d565b60405180910390f35b61012f600480360381019061012a9190610d3e565b6103c6565b60405161013c9190610d96565b60405180910390f35b61014d6104b3565b60405161015a9190610dbe565b60405180910390f35b61017d60048036038101906101789190610dd7565b6104bc565b60405161018a9190610d96565b60405180910390f35b6101ad60048036038101906101a89190610e27565b61079c565b6040516101ba9190610dbe565b60405180910390f35b6101cb6107b1565b6040516101d89190610e6d565b60405180910390f35b6101e96107c6565b6040516101f69190610e6d565b60405180910390f35b6102076107d8565b6040516102149190610dbe565b60405180910390f35b61023760048036038101906102329190610e86565b6107de565b6040516102449190610dbe565b60405180910390f35b61026760048036038101906102629190610e27565b6107fe565b6040516102749190610dbe565b60405180910390f35b610285610844565b6040516102929190610c8d565b60405180910390f35b6102b560048036038101906102b09190610d3e565b6108d4565b6040516102c29190610d96565b60405180910390f35b6102d3610a6a565b6040516102e09190610c8d565b60405180910390f35b6102f1610af6565b6040516102fe9190610c8d565b60405180910390f35b610321600480360381019061031c9190610e86565b610b81565b60405161032e9190610dbe565b60405180910390f35b60605f805461034590610ef1565b80601f016020809104026020016040519081016040528092919081815260200182805461037190610ef1565b80156103bc5780601f10610393576101008083540402835291602001916103bc565b820191905f5260205f20905b81548152906001019060200180831161039f57829003601f168201915b5050505050905090565b5f8160055f3373ffffffffffffffffffffffffffffffffffffffff1673ffffffffffffffffffffffffffffffffffffffff1681526020019081526020015f205f8573ffffffffffffffffffffffffffffffffffffffff1673ffffffffffffffffffffffffffffffffffffffff1681526020019081526020015f20819055508273ffffffffffffffffffffffffffffffffffffffff163373ffffffffffffffffffffffffffffffffffffffff167f8c5be1e5ebec7d5bd14f71427d1e84f3dd0314c0f7b2291e5b200ac8c7c3b925846040516104a19190610dbe565b60405180910390a36001905092915050565b5f600354905090565b5f60045f8573ffffffffffffffffffffffffffffffffffffffff1673ffffffffffffffffffffffffffffffffffffffff1681526020019081526020015f205482111561053d576040517f08c379a000000000000000000000000000000000000000000000000000000000815260040161053490610f6b565b60405180910390fd5b60055f8573ffffffffffffffffffffffffffffffffffffffff1673ffffffffffffffffffffffffffffffffffffffff1681526020019081526020015f205f3373ffffffffffffffffffffffffffffffffffffffff1673ffffffffffffffffffffffffffffffffffffffff1681526020019081526020015f20548211156105f8576040517f08c379a00000000000000000000000000000000000000000000000000000000081526004016105ef90610fd3565b60405180910390fd5b8160045f8673ffffffffffffffffffffffffffffffffffffffff1673ffffffffffffffffffffffffffffffffffffffff1681526020019081526020015f205f828254610644919061101e565b925050819055508160055f8673ffffffffffffffffffffffffffffffffffffffff1673ffffffffffffffffffffffffffffffffffffffff1681526020019081526020015f205f3373ffffffffffffffffffffffffffffffffffffffff1673ffffffffffffffffffffffffffffffffffffffff1681526020019081526020015f205f8282546106d2919061101e565b925050819055508160045f8573ffffffffffffffffffffffffffffffffffffffff1673ffffffffffffffffffffffffffffffffffffffff1681526020019081526020015f205f8282546107259190611051565b925050819055508273ffffffffffffffffffffffffffffffffffffffff168473ffffffffffffffffffffffffffffffffffffffff167fddf252ad1be2c89b69c2b068fc378daa952ba7f163c4a11628f55a4df523b3ef846040516107899190610dbe565b60405180910390a3600190509392505050565b6004602052805f5260405f205f915090505481565b5f60025f9054906101000a900460ff16905090565b60025f9054906101000a900460ff1681565b60035481565b6005602052815f5260405f20602052805f5260405f205f91509150505481565b5f60045f8373ffffffffffffffffffffffffffffffffffffffff1673ffffffffffffffffffffffffffffffffffffffff1681526020019081526020015f20549050919050565b60606001805461085390610ef1565b80601f016020809104026020016040519081016040528092919081815260200182805461087f90610ef1565b80156108ca5780601f106108a1576101008083540402835291602001916108ca565b820191905f5260205f20905b8154815290600101906020018083116108ad57829003601f168201915b5050505050905090565b5f8160045f3373ffffffffffffffffffffffffffffffffffffffff1673ffffffffffffffffffffffffffffffffffffffff1681526020019081526020015f20541015610955576040517f08c379a000000000000000000000000000000000000000000000000000000000815260040161094c90610f6b565b60405180910390fd5b8160045f3373ffffffffffffffffffffffffffffffffffffffff1673ffffffffffffffffffffffffffffffffffffffff1681526020019081526020015f205f8282546109a1919061101e565b925050819055508160045f8573ffffffffffffffffffffffffffffffffffffffff1673ffffffffffffffffffffffffffffffffffffffff1681526020019081526020015f205f8282546109f49190611051565b925050819055508273ffffffffffffffffffffffffffffffffffffffff163373ffffffffffffffffffffffffffffffffffffffff167fddf252ad1be2c89b69c2b068fc378daa952ba7f163c4a11628f55a4df523b3ef84604051610a589190610dbe565b60405180910390a36001905092915050565b60018054610a7790610ef1565b80601f0160208091040260200160405190810160405280929190818152602001828054610aa390610ef1565b8015610aee5780601f10610ac557610100808354040283529160200191610aee565b820191905f5260205f20905b815481529060010190602001808311610ad157829003601f168201915b505050505081565b5f8054610b0290610ef1565b80601f0160208091040260200160405190810160405280929190818152602001828054610b2e90610ef1565b8015610b795780601f10610b5057610100808354040283529160200191610b79565b820191905f5260205f20905b815481529060010190602001808311610b5c57829003601f168201915b505050505081565b5f60055f8473ffffffffffffffffffffffffffffffffffffffff1673ffffffffffffffffffffffffffffffffffffffff1681526020019081526020015f205f8373ffffffffffffffffffffffffffffffffffffffff1673ffffffffffffffffffffffffffffffffffffffff1681526020019081526020015f2054905092915050565b5f81519050919050565b5f82825260208201905092915050565b5f5b83811015610c3a578082015181840152602081019050610c1f565b5f8484015250505050565b5f601f19601f8301169050919050565b5f610c5f82610c03565b610c698185610c0d565b9350610c79818560208601610c1d565b610c8281610c45565b840191505092915050565b5f6020820190508181035f830152610ca58184610c55565b905092915050565b5f80fd5b5f73ffffffffffffffffffffffffffffffffffffffff82169050919050565b5f610cda82610cb1565b9050919050565b610cea81610cd0565b8114610cf4575f80fd5b50565b5f81359050610d0581610ce1565b92915050565b5f819050919050565b610d1d81610d0b565b8114610d27575f80fd5b50565b5f81359050610d3881610d14565b92915050565b5f8060408385031215610d5457610d53610cad565b5b5f610d6185828601610cf7565b9250506020610d7285828601610d2a565b9150509250929050565b5f8115159050919050565b610d9081610d7c565b82525050565b5f602082019050610da95f830184610d87565b92915050565b610db881610d0b565b82525050565b5f602082019050610dd15f830184610daf565b92915050565b5f805f60608486031215610dee57610ded610cad565b5b5f610dfb86828701610cf7565b9350506020610e0c86828701610cf7565b9250506040610e1d86828701610d2a565b9150509250925092565b5f60208284031215610e3c57610e3b610cad565b5b5f610e4984828501610cf7565b91505092915050565b5f60ff82169050919050565b610e6781610e52565b82525050565b5f602082019050610e805f830184610e5e565b92915050565b5f8060408385031215610e9c57610e9b610cad565b5b5f610ea985828601610cf7565b9250506020610eba85828601610cf7565b9150509250929050565b7f4e487b71000000000000000000000000000000000000000000000000000000005f52602260045260245ffd5b5f6002820490506001821680610f0857607f821691505b602082108103610f1b57610f1a610ec4565b5b50919050565b7f496e73756666696369656e742062616c616e63652e00000000000000000000005f82015250565b5f610f55601583610c0d565b9150610f6082610f21565b602082019050919050565b5f6020820190508181035f830152610f8281610f49565b9050919050565b7f496e73756666696369656e7420616c6c6f77616e63652e0000000000000000005f82015250565b5f610fbd601783610c0d565b9150610fc882610f89565b602082019050919050565b5f6020820190508181035f830152610fea81610fb1565b9050919050565b7f4e487b71000000000000000000000000000000000000000000000000000000005f52601160045260245ffd5b5f61102882610d0b565b915061103383610d0b565b925082820390508181111561104b5761104a610ff1565b5b92915050565b5f61105b82610d0b565b915061106683610d0b565b925082820190508082111561107e5761107d610ff1565b5b9291505056fea2646970667358221220df74288ab225f2f2a2a31bab6c4fc23374a62939530df856f2bbc06a8283090064736f6c63430008150033",
  "immutableReferences": {},
  "source": "// SPDX-License-Identifier: MIT\r\npragma solidity ^0.8.21;\r\nimport \"./ERC20.sol\";\r\n\r\ncontract XYZCoin is ERC20Interface {\r\n    string public _name = \"XYZCoin\";\r\n    string public _symbol = \"XYZ\";\r\n    uint8 public _decimals = 0;\r\n    uint public _totalSupply = 1000;\r\n\r\n    mapping(address => uint) public balances;\r\n    mapping(address => mapping(address => uint)) public allowed;\r\n\r\n    constructor() {\r\n        balances[msg.sender] = _totalSupply;\r\n        emit Transfer(address(0), msg.sender, _totalSupply);\r\n    }\r\n\r\n    function name() public view override returns (string memory) {\r\n        return _name;\r\n    }\r\n\r\n    function symbol() public view override returns (string memory) {\r\n        return _symbol;\r\n    }\r\n\r\n    function decimals() public view override returns (uint8) {\r\n        return _decimals;\r\n    }\r\n\r\n    function totalSupply() public view override returns (uint) {\r\n        return _totalSupply;\r\n    }\r\n\r\n    function balanceOf(address tokenOwner) public view override returns (uint balance) {\r\n        return balances[tokenOwner];\r\n    }\r\n\r\n    function transfer(address to, uint tokens) public override returns (bool success) {\r\n        require(balances[msg.sender] >= tokens, \"Insufficient balance.\");\r\n        balances[msg.sender] -= tokens;\r\n        balances[to] += tokens;\r\n        emit Transfer(msg.sender, to, tokens);\r\n        return true;\r\n    }\r\n\r\n    function approve(address spender, uint tokens) public override returns (bool success) {\r\n        allowed[msg.sender][spender] = tokens;\r\n        emit Approval(msg.sender, spender, tokens);\r\n        return true;\r\n    }\r\n\r\n    function transferFrom(address from, address to, uint tokens) public override returns (bool success) {\r\n        require(tokens <= balances[from], \"Insufficient balance.\");\r\n        require(tokens <= allowed[from][msg.sender], \"Insufficient allowance.\");\r\n        \r\n        balances[from] -= tokens;\r\n        allowed[from][msg.sender] -= tokens;\r\n        balances[to] += tokens;\r\n        emit Transfer(from, to, tokens);\r\n        return true;\r\n    }\r\n\r\n    function allowance(address tokenOwner, address spender) public view override returns (uint remaining) {\r\n        return allowed[tokenOwner][spender];\r\n    }\r\n}",
  "sourcePath": "C:\\Users\\ASUS\\my-truffle-project\\contracts\\XYZCoin.sol",
  "compiler": {
    "name": "solc",
    "version": "0.8.21+commit.d9974bed.Emscripten.clang"
  },
  "schemaVersion": "3.4.16",
  "updatedAt": "2025-08-07T11:26:30.234Z",
  "networkType": "ethereum",
  "devdoc": {
    "kind": "dev",
    "methods": {},
    "version": 1
  },
  "userdoc": {
    "kind": "user",
    "methods": {},
    "version": 1
  }
}